{
  "contractName": "HumidityContract",
  "abi": [
    {
      "constant": true,
      "inputs": [],
      "name": "supplier",
      "outputs": [
        {
          "internalType": "address",
          "name": "",
          "type": "address"
        }
      ],
      "payable": false,
      "stateMutability": "view",
      "type": "function"
    },
    {
      "constant": false,
      "inputs": [
        {
          "internalType": "uint256",
          "name": "_humidity",
          "type": "uint256"
        }
      ],
      "name": "humidityViolation",
      "outputs": [],
      "payable": false,
      "stateMutability": "nonpayable",
      "type": "function"
    },
    {
      "constant": true,
      "inputs": [],
      "name": "getHumidity",
      "outputs": [
        {
          "internalType": "uint256",
          "name": "",
          "type": "uint256"
        }
      ],
      "payable": false,
      "stateMutability": "view",
      "type": "function"
    }
  ],
  "bytecode": "0x6080604052600560015534801561001557600080fd5b5061018a806100256000396000f3fe608060405234801561001057600080fd5b50600436106100415760003560e01c80633428a9fc1461004657806336da4468146100645780633f67d783146100ae575b600080fd5b61004e6100dc565b6040518082815260200191505060405180910390f35b61006c6100e6565b604051808273ffffffffffffffffffffffffffffffffffffffff1673ffffffffffffffffffffffffffffffffffffffff16815260200191505060405180910390f35b6100da600480360360208110156100c457600080fd5b810190808035906020019092919050505061010b565b005b6000600154905090565b6000809054906101000a900473ffffffffffffffffffffffffffffffffffffffff1681565b80600181905550336000806101000a81548173ffffffffffffffffffffffffffffffffffffffff021916908373ffffffffffffffffffffffffffffffffffffffff1602179055505056fea265627a7a723158209341b2fff60dc9aa93c5fe5b00f743ac90bf8117b3f2e10f822205926f63524164736f6c63430005100032",
  "source": "// SPDX-License-Identifier: unlicensed\r\npragma solidity >=0.4.22 <0.8.0;\r\n\r\ncontract HumidityContract {\r\n    address public supplier;\r\n    uint private humidity = 5;\r\n\r\n    function humidityViolation(uint _humidity) public {\r\n        humidity = _humidity;\r\n        supplier = msg.sender;\r\n    }\r\n\r\n    function getHumidity() public view returns (uint) {\r\n        return humidity;\r\n    }\r\n\r\n}\r\n\r\n",
  "sourcePath": "C:/Users/mjbre/source/repos/Thesis B/humidity-contract/contracts/HumidityContract.sol",
  "compiler": {
    "name": "solc",
    "version": "0.5.16+commit.9c3226ce.Emscripten.clang"
  },
  "schemaVersion": "3.3.4",
  "updatedAt": "2021-03-05T06:17:14.666Z",
  "networkType": "ethereum",
  "devdoc": {
    "methods": {}
  },
  "userdoc": {
    "methods": {}
  }
}