{
  "contractName": "HumidityContract",
  "abi": [
    {
      "inputs": [],
      "payable": false,
      "stateMutability": "nonpayable",
      "type": "constructor"
    },
    {
      "constant": false,
      "inputs": [
        {
          "internalType": "uint256",
          "name": "_humidity",
          "type": "uint256"
        }
      ],
      "name": "humidityViolation",
      "outputs": [],
      "payable": false,
      "stateMutability": "nonpayable",
      "type": "function"
    },
    {
      "constant": true,
      "inputs": [],
      "name": "getHumidity",
      "outputs": [
        {
          "internalType": "uint256",
          "name": "",
          "type": "uint256"
        }
      ],
      "payable": false,
      "stateMutability": "view",
      "type": "function"
    },
    {
      "constant": true,
      "inputs": [],
      "name": "getViolated",
      "outputs": [
        {
          "internalType": "bool",
          "name": "",
          "type": "bool"
        }
      ],
      "payable": false,
      "stateMutability": "view",
      "type": "function"
    },
    {
      "constant": false,
      "inputs": [],
      "name": "resetContract",
      "outputs": [],
      "payable": false,
      "stateMutability": "nonpayable",
      "type": "function"
    }
  ],
  "bytecode": "0x60806040526000600460006101000a81548160ff02191690831515021790555034801561002b57600080fd5b5033600260006101000a81548173ffffffffffffffffffffffffffffffffffffffff021916908373ffffffffffffffffffffffffffffffffffffffff1602179055506102048061007c6000396000f3fe608060405234801561001057600080fd5b506004361061004c5760003560e01c80632ba33467146100515780633428a9fc146100735780633f67d78314610091578063b181a8fc146100bf575b600080fd5b6100596100c9565b604051808215151515815260200191505060405180910390f35b61007b6100e0565b6040518082815260200191505060405180910390f35b6100bd600480360360208110156100a757600080fd5b81019080803590602001909291905050506100ea565b005b6100c76101aa565b005b6000600460009054906101000a900460ff16905090565b6000600354905090565b3373ffffffffffffffffffffffffffffffffffffffff16600260009054906101000a900473ffffffffffffffffffffffffffffffffffffffff1673ffffffffffffffffffffffffffffffffffffffff161461014457600080fd5b8060038190555033600260006101000a81548173ffffffffffffffffffffffffffffffffffffffff021916908373ffffffffffffffffffffffffffffffffffffffff1602179055506001600460006101000a81548160ff02191690831515021790555050565b60006003819055506000600460006101000a81548160ff02191690831515021790555056fea265627a7a72315820db6abc713410c8abd12c27d00d7e4b3e13dac7875259f1201d094ce70378d7e064736f6c63430005100032",
  "source": "// SPDX-License-Identifier: unlicensed\r\npragma solidity >=0.4.22 <0.8.0;\r\n\r\ncontract HumidityContract {\r\n    address private supplier;\r\n    address private buyer;\r\n    address private device;\r\n    uint private humidity;\r\n    bool private violated = false;\r\n\r\n    constructor() public {\r\n        device = msg.sender;\r\n    }\r\n\r\n    function humidityViolation(uint _humidity) public {\r\n        require(device == msg.sender);\r\n        humidity = _humidity;\r\n        // change this\r\n        device = msg.sender;\r\n        violated = true;\r\n    }\r\n\r\n    function getHumidity() public view returns (uint) {\r\n        return humidity;\r\n    }\r\n\r\n    function getViolated() public view returns (bool) {\r\n        return violated;\r\n    }\r\n\r\n    // TEST FUNCTIONS\r\n    function resetContract() public {\r\n        humidity = 0;\r\n        violated = false;\r\n    }\r\n\r\n\r\n\r\n}\r\n\r\n",
  "sourcePath": "C:/Users/mjbre/source/repos/Thesis B/humidity-contract/contracts/HumidityContract.sol",
  "compiler": {
    "name": "solc",
    "version": "0.5.16+commit.9c3226ce.Emscripten.clang"
  },
  "schemaVersion": "3.3.4",
  "updatedAt": "2021-03-09T11:22:50.253Z",
  "networkType": "ethereum",
  "devdoc": {
    "methods": {}
  },
  "userdoc": {
    "methods": {}
  }
}