{
  "contractName": "SmartContract",
  "abi": [
    {
      "inputs": [],
      "payable": false,
      "stateMutability": "nonpayable",
      "type": "constructor"
    },
    {
      "constant": false,
      "inputs": [
        {
          "internalType": "uint256",
          "name": "_humidity",
          "type": "uint256"
        }
      ],
      "name": "humidityViolation",
      "outputs": [],
      "payable": false,
      "stateMutability": "nonpayable",
      "type": "function"
    },
    {
      "constant": false,
      "inputs": [
        {
          "internalType": "bool",
          "name": "_doorState",
          "type": "bool"
        }
      ],
      "name": "doorViolation",
      "outputs": [],
      "payable": false,
      "stateMutability": "nonpayable",
      "type": "function"
    },
    {
      "constant": false,
      "inputs": [
        {
          "internalType": "uint256",
          "name": "_acceleration",
          "type": "uint256"
        }
      ],
      "name": "shockViolation",
      "outputs": [],
      "payable": false,
      "stateMutability": "nonpayable",
      "type": "function"
    },
    {
      "constant": true,
      "inputs": [],
      "name": "getHumidity",
      "outputs": [
        {
          "internalType": "uint256",
          "name": "",
          "type": "uint256"
        }
      ],
      "payable": false,
      "stateMutability": "view",
      "type": "function"
    },
    {
      "constant": true,
      "inputs": [],
      "name": "getDoorState",
      "outputs": [
        {
          "internalType": "bool",
          "name": "",
          "type": "bool"
        }
      ],
      "payable": false,
      "stateMutability": "view",
      "type": "function"
    },
    {
      "constant": true,
      "inputs": [],
      "name": "getAccelState",
      "outputs": [
        {
          "internalType": "uint256",
          "name": "",
          "type": "uint256"
        }
      ],
      "payable": false,
      "stateMutability": "view",
      "type": "function"
    },
    {
      "constant": true,
      "inputs": [],
      "name": "getViolated",
      "outputs": [
        {
          "internalType": "bool",
          "name": "",
          "type": "bool"
        }
      ],
      "payable": false,
      "stateMutability": "view",
      "type": "function"
    },
    {
      "constant": false,
      "inputs": [],
      "name": "resetContract",
      "outputs": [],
      "payable": false,
      "stateMutability": "nonpayable",
      "type": "function"
    }
  ],
  "bytecode": "0x60806040526000600660006101000a81548160ff02191690831515021790555034801561002b57600080fd5b5033600260006101000a81548173ffffffffffffffffffffffffffffffffffffffff021916908373ffffffffffffffffffffffffffffffffffffffff1602179055506103f28061007c6000396000f3fe608060405234801561001057600080fd5b50600436106100885760003560e01c80632ba334671161005b5780632ba334671461012b5780633428a9fc1461014d5780633f67d7831461016b578063b181a8fc1461019957610088565b80630e2f04df1461008d578063180262af146100af5780631de250eb146100cd5780632697e6e9146100fb575b600080fd5b6100956101a3565b604051808215151515815260200191505060405180910390f35b6100b76101ba565b6040518082815260200191505060405180910390f35b6100f9600480360360208110156100e357600080fd5b81019080803590602001909291905050506101c4565b005b6101296004803603602081101561011157600080fd5b81019080803515159060200190929190505050610243565b005b6101336102d5565b604051808215151515815260200191505060405180910390f35b6101556102ec565b6040518082815260200191505060405180910390f35b6101976004803603602081101561018157600080fd5b81019080803590602001909291905050506102f6565b005b6101a1610375565b005b6000600460009054906101000a900460ff16905090565b6000600554905090565b3373ffffffffffffffffffffffffffffffffffffffff16600260009054906101000a900473ffffffffffffffffffffffffffffffffffffffff1673ffffffffffffffffffffffffffffffffffffffff161461021e57600080fd5b806005819055506001600660006101000a81548160ff02191690831515021790555050565b3373ffffffffffffffffffffffffffffffffffffffff16600260009054906101000a900473ffffffffffffffffffffffffffffffffffffffff1673ffffffffffffffffffffffffffffffffffffffff161461029d57600080fd5b80600460006101000a81548160ff0219169083151502179055506001600660006101000a81548160ff02191690831515021790555050565b6000600660009054906101000a900460ff16905090565b6000600354905090565b3373ffffffffffffffffffffffffffffffffffffffff16600260009054906101000a900473ffffffffffffffffffffffffffffffffffffffff1673ffffffffffffffffffffffffffffffffffffffff161461035057600080fd5b806003819055506001600660006101000a81548160ff02191690831515021790555050565b60006003819055506000600460006101000a81548160ff02191690831515021790555060006005819055506000600660006101000a81548160ff02191690831515021790555056fea265627a7a723158209a1571f2754fe37e78765f67cc3b6dd8b217772b02f151958b1bb51179c5046c64736f6c63430005100032",
  "source": "// SPDX-License-Identifier: unlicensed\r\npragma solidity >=0.5.0;\r\n\r\ncontract SmartContract {\r\n    address private supplier;\r\n    address private buyer;\r\n    address private device;\r\n    uint private humidity;\r\n    bool private doorState;\r\n    uint private acceleration;\r\n    bool private violated = false;\r\n\r\n    constructor() public {\r\n        device = msg.sender;\r\n    }\r\n\r\n    function humidityViolation(uint _humidity) public {\r\n        require(device == msg.sender);\r\n        humidity = _humidity;\r\n        violated = true;\r\n    }\r\n\r\n    function doorViolation(bool _doorState) public {\r\n        require(device == msg.sender);\r\n        doorState = _doorState;\r\n        violated = true;\r\n    }\r\n\r\n    function shockViolation(uint _acceleration) public {\r\n        require(device == msg.sender);\r\n        acceleration = _acceleration;\r\n        violated = true;\r\n    }\r\n\r\n    function getHumidity() public view returns (uint) {\r\n        return humidity;\r\n    }\r\n\r\n    function getDoorState() public view returns (bool) {\r\n        return doorState;\r\n    }\r\n\r\n    function getAccelState() public view returns (uint) {\r\n        return acceleration;\r\n    }\r\n\r\n    function getViolated() public view returns (bool) {\r\n        return violated;\r\n    }\r\n\r\n    // TEST FUNCTIONS\r\n    function resetContract() public {\r\n        humidity = 0;\r\n        doorState = false;\r\n        acceleration = 0;\r\n        violated = false;\r\n    }\r\n\r\n\r\n\r\n}\r\n\r\n",
  "sourcePath": "C:/Users/mjbre/source/repos/Thesis B/smart-contract/contracts/SmartContract.sol",
  "compiler": {
    "name": "solc",
    "version": "0.5.16+commit.9c3226ce.Emscripten.clang"
  },
  "schemaVersion": "3.3.4",
  "updatedAt": "2021-04-21T01:49:50.606Z",
  "networkType": "ethereum",
  "devdoc": {
    "methods": {}
  },
  "userdoc": {
    "methods": {}
  }
}